:0300FA000108FFFB
:0400E1007F147E000A
:1000E500EF1FAC0670011E4C600A7D027CEFDCFE42
:0400F500DDFC80ECC2
:0100F90022E4
:10008F0020B1231200E130B1FD1200E1E508B40701
:10009F00037508FF0508AF087401A807088002C39D
:1000AF0033D8FCF4F5A020B0D71200E130B0FD1228
:1000BF0000E1E5086003B4FF057508078002150825
:1000CF00AF087401A807088002C333D8FCF4F5A069
:0200DF0080AEF1
:03000000020003F8
:0C000300787FE4F6D8FD75810802004A01
:10000F0002008FE493A3F8E493A34003F68001F278
:10001F0008DFF48029E493A3F85407240CC8C333F2
:10002F00C4540F4420C8834004F456800146F6DFC1
:10003F00E4800B01020408102040809000FAE47E57
:10004F00019360BCA3FF543F30E509541FFEE493B6
:10005F00A360010ECF54C025E060A840B8E493A37D
:10006F00FAE493A3F8E493A3C8C582C8CAC583CAA8
:10007F00F0A3C8C582C8CAC583CADFE9DEE780BE60
:0100FD000002
:00000001FF
